:020000040800F2
:1000000000000220B11A0008011B0008011B0008B3
:10001000011B0008011B0008011B00080000000074
:10002000000000000000000000000000011B0008AC
:10003000011B000800000000011B0008D904000893
:10004000011B0008011B0008011B0008011B000820
:10005000011B0008011B0008011B0008011B000810
:10006000011B0008011B0008011B0008011B000800
:10007000011B0008011B0008011B0008011B0008F0
:10008000011B0008011B0008011B0008011B0008E0
:10009000011B0008011B0008011B0008011B0008D0
:1000A000011B0008011B0008011B0008011B0008C0
:1000B000011B0008011B0008011B0008011B0008B0
:1000C000011B0008011B0008011B0008011B0008A0
:1000D000011B0008011B0008E5040008011B0008C3
:1000E000011B0008011B0008011B0008011B000880
:1000F000011B0008011B0008011B0008011B000870
:10010000011B0008011B0008011B0008011B00085F
:10011000011B0008011B0008F5040008011B000872
:10012000011B0008011B0008011B0008011B00083F
:10013000011B0008011B0008011B0008011B00082F
:10014000011B0008011B0008011B0008011B00081F
:10015000011B0008011B0008011B0008011B00080F
:10016000011B0008011B0008011B0008011B0008FF
:10017000011B0008011B0008011B00080000000013
:08018000011B0008011B00082F
:1001880010B5054C237833B9044B13B10448AFF3C9
:1001980000800123237010BD100000200000000023
:1001A8005C1B000808B5034B1BB103490348AFF3B8
:1001B800008008BD00000000140000205C1B00083F
:1001C80053B94AB9002908BF00281CBF4FF0FF31B6
:1001D8004FF0FF3000F072B9ADF1080C6DE904CEB4
:1001E80000F006F8DDF804E0DDE9022304B070470A
:1001F8002DE9F047089E04468846002B4BD18A42D9
:10020800154667D9B2FA82F24AB1C2F1200701FA5B
:1002180002F320FA07F7954047EA030894404FEAAB
:10022800154E230CB8FBFEF71FFA85FC0EFB17884A
:1002380043EA084307FB0CF1994209D9EB1807F187
:10024800FF3080F01B81994240F21881023F2B4415
:100258005B1AA4B2B3FBFEF00EFB103344EA03446E
:1002680000FB0CFCA44509D92C1900F1FF3380F0E0
:100278000781A44540F2048102382C4440EA074033
:10028800A4EB0C0400271EB1D4400023C6E90043A8
:100298003946BDE8F0878B4209D9002E00F0EB8083
:1002A8000027C6E9000138463946BDE8F087B3FAA9
:1002B80083F7002F47D18B4202D3824200F2FA80A3
:1002C800841A61EB030301209846002EE0D0C6E9AA
:1002D8000048DDE702B9FFDEB2FA82F2002A40F0F8
:1002E8008F80491B4FEA154E1FFA85F80127B1FB8D
:1002F800FEFC230C0EFB1C1143EA014308FB0CF126
:10030800994207D9EB180CF1FF3002D2994200F25A
:10031800CD808446591AA3B2B1FBFEF00EFB10142F
:1003280043EA044408FB00F8A04507D92C1900F15A
:10033800FF3302D2A04500F2B6801846A4EB0804A9
:1003480040EA0C409FE7C7F1200CBB4022FA0CFEA4
:100358004EEA030E01FA07F420FA0CF521FA0CF321
:100368004FEA1E482543B3FBF8F92C0C08FB193358
:100378001FFA8EFA44EA034309FB0AF49C4202FA84
:1003880007F200FA07F10BD91EEB030309F1FF305E
:1003980080F087809C4240F28480A9F1020973446E
:1003A8001B1BADB2B3FBF8F008FB103345EA03445E
:1003B80000FB0AFAA24508D91EEB040400F1FF333A
:1003C8006BD2A24569D90238744440EA0940A0FBBF
:1003D8000289A4EB0A044C45C2464B4654D351D07B
:1003E800002E69D0B1EB0A0564EB030404FA0CFC97
:1003F800FD40FC404CEA0505C6E90054002747E7E4
:10040800C2F1200320FA03F7954001FA02F021FA1D
:1004180003F34FEA154E3843010CB3FBFEF71FFAFE
:1004280085F80EFB173341EA034107FB08F38B42BB
:1004380004FA02F407D9691807F1FF3C2FD28B425E
:100448002DD9023F2944CB1A81B2B3FBFEF00EFB33
:10045800103341EA034100FB08F38B4207D96918BE
:1004680000F1FF3C17D28B4215D902382944C91A2A
:1004780040EA07473BE73746304609E70746E7E6DD
:100488001846FBE64145ABD2B8EB020A69EB0E020F
:1004980001381346A4E76046E9E7184695E767463A
:1004A800D1E781467CE702382C4447E7ACF1020CDF
:1004B8002B442FE7384608E73746E9E6704700BF80
:1004C800034613F8012B002AFBD1181A013870478C
:1004D80008B500F0B3F900F03EFA08BD08B50248C7
:1004E80001F046FA08BD00BFE800002008B5024840
:1004F80000F083FE08BD00BF2C00002008B54FF4B3
:100508008051034800F022FB024B00221A6108BD0B
:10051800000C02400010004054290DD0782913D057
:10052800322900D0704710230362642343620223F8
:10053800836201231370704710230362A823436268
:10054800022383621370704710230362F02343620F
:100558000223836203231370E4E7FEE708B5094822
:10056800094B03604FF4E133436000238360C360A9
:10057800036183610C23436101F0FBF800B908BDF6
:10058800FFF7EBFFE80000200044004010B592B0F0
:10059800044600218DF803102C2207A801F0D2FA96
:1005A800022306930122099210220A920C930DF15C
:1005B8000302214606A8FFF7AFFF06A800F0D0FA0D
:1005C800E0B90F230193022302934FF4805305935C
:1005D8008022039204939DF8031001A800F022FDE5
:1005E80070B900F0B3FC074BA3FB0030800900F0A2
:1005F8008BF9042000F09EF912B010BDFFF7ADFF93
:10060800FFF7ABFFD34D621008B50948094B0360EB
:1006180040F6FF734360002383604FF4FA62C260C0
:10062800036100F00BFF00B908BDFFF796FF00BF9C
:100638002C0000200010004008B5064901234B603B
:100648004FF480520A600222CA608B60024800F0B0
:1006580099F908BDD0000020000C024010B500F048
:10066800D3F83220FFF792FFFFF778FFFFF7E4FF98
:10067800FFF7CAFF0A4B1C682046FFF721FF4FF01F
:10068800FF3382B22146074801F0A2F808B1FFF70C
:1006980064FF054800F09CFD00B9FEE7FFF75DFF29
:1006A80000000020E80000202C00002008B50320EE
:1006B80000F0D6F80B4A536A43F4E0235362002251
:1006C80011466FF00B0000F0DDF8002211466FF0C4
:1006D8000A0000F0D7F8002211466FF0090000F078
:1006E800D1F808BD00ED00E030B589B000240094D1
:1006F8001D4B1A6C42F400321A641A6C02F4003270
:100708000092009A01941A6B42F001021A631A6B64
:1007180002F001020192019A02941A6B42F0080257
:100728001A631B6B03F008030293029B20230393B5
:1007380002230493012205920693072307930B4D86
:1007480003A9284600F01EF94023039303A928466D
:1007580000F018F9262000F0C9F822460F212620BB
:1007680000F090F809B030BD00380240000C02409B
:1007780010B582B000240194094B1A6C42F01002A3
:100788001A641B6C03F010030193019B362000F0E0
:10079800ADF822460F21362000F074F802B010BDE3
:1007A80000380240054BD3F8882042F47002C3F8A1
:1007B80088204FF000629A60704700BF00ED00E0AB
:1007C80010B504460E4B18784FF47A73B3FBF0F368
:1007D8000C4A1068B0FBF3F000F096F868B90F2CDB
:1007E80001D901200AE0002221464FF0FF3000F035
:1007F80049F8034B5C60002000E0012010BD00BFF9
:10080800080000200400002008B50B4B1A6842F4C9
:1008180000721A601A6842F480621A601A6842F418
:1008280080721A60032000F01BF80020FFF7C8FF51
:10083800FFF73CFF002008BD003C0240034A116856
:10084800034B1B780B441360704700BF280100203E
:1008580008000020014B1868704700BF28010020DD
:10086800074AD36823F4E0631B041B0C000200F45E
:10087800E060184340F0BF6040F40030D06070473B
:1008880000ED00E030B4174BDB68C3F30223C3F17B
:100898000704042C28BF04241D1D062D18D9033B6A
:1008A8004FF0FF3505FA04F421EA0401994005FAEE
:1008B80003F322EA0303194300280BDB0901C9B239
:1008C80000F1604000F5614080F8001330BC7047CB
:1008D8000023E5E700F00F000901C9B2024B1954E3
:1008E800F4E700BF00ED00E014ED00E0002807DBAE
:1008F80000F01F02400901239340024A42F82030C9
:10090800704700BF00E100E00138B0F1807F0AD2F3
:10091800064B5860064AF02182F8231000209860A0
:1009280007221A6070470120704700BF10E000E0FE
:1009380000ED00E0042805D0054A136823F00403FD
:1009480013607047024A136843F00403136070474A
:1009580010E000E0704708B5FFF7FCFF08BD90F80D
:100968003530DBB2022B03D080234365012070476A
:10097800052380F835300268136823F001031360FB
:100988000020704700230F2B00F2D780F0B583B00A
:1009980039E0072200E00022AA403A430234674DBA
:1009A80045F82420664A1468F24302EA04054F68B1
:1009B80017F4803F01D046EA0405614C256064685D
:1009C80002EA04054F6817F4003F01D046EA04051F
:1009D8005B4C6560A46802EA04054F6817F4801F41
:1009E80001D046EA0405564CA560E46822404D68EB
:1009F80015F4001F01D046EA0402514CE2600133AD
:100A08000F2B00F2988001229A400C6804EA020633
:100A1800B242F4D14C68651E012D03D9112C01D0C6
:100A2800122C12D185685F000324BC4025EA040516
:100A3800CC68BC402C438460456825EA02054C68B4
:100A4800C4F300129A402A434260C4685F0003223C
:100A5800BA40D24314408D68BD402543C5604C68F8
:100A6800022C01D0122C13D1DD08083550F825E0EE
:100A780003F007044FEA840C0F2404FA0CF42EEA5E
:100A8800040E0C6904FA0CF444EA0E0440F82540FC
:100A9800046822404C6804F00304BC40224302600E
:100AA8004A6812F0805FAAD000220192254A546C4D
:100AB80044F480445464526C02F480420192019AD6
:100AC8009C08A51C1D4A52F8257003F003029500E6
:100AD8000F22AA4027EA02071B4A90423FF45BAF65
:100AE80002F5806290421AD002F58062904218D0D6
:100AF80002F58062904216D002F58062904214D0CE
:100B080002F58062904212D002F58062904210D0C5
:100B180002F5806290423FF43CAF08223CE7012294
:100B28003AE7022238E7032236E7042234E70522AF
:100B380032E7062230E703B0F0BD704700380140C5
:100B4800003C01400038024000000240436931EA9D
:100B5800030301D081617047090481617047000077
:100B6800002800F0E48170B582B00446036813F0F1
:100B7800010F3BD0A74B9B6803F00C03042B2CD030
:100B8800A44B9B6803F00C03082B21D06368B3F5D2
:100B9800803F4FD0B3F5A02F52D09E4B1A6822F455
:100BA80080321A601A6822F480221A606368002B67
:100BB80050D0FFF74FFE0546964B1B6813F4003FD5
:100BC80014D1FFF747FE401B6428F5D90320B3E191
:100BD800904B5B6813F4800FD8D08E4B1B6813F4CE
:100BE800003F03D06368002B00F0A381236813F053
:100BF800020F55D0874B9B6813F00C0F3ED0854BE6
:100C08009B6803F00C03082B33D0E368002B68D0F3
:100C1800814B01221A60FFF71DFE05467D4B1B68BC
:100C280013F0020F54D1FFF715FE401B0228F5D927
:100C3800032081E1774A136843F480331360B5E7F2
:100C4800744B1A6842F480221A601A6842F480329F
:100C58001A60ABE7FFF7FEFD05466E4B1B6813F401
:100C6800003FC3D0FFF7F6FD401B6428F5D90320E9
:100C780062E1684B5B6813F4800FC6D1654B1B6853
:100C880013F0020F04D0E368012B01D0012053E1D7
:100C9800604A136823F0F803216943EAC10313602B
:100CA800236813F0080F40D0636963B35B4B0122DC
:100CB8001A60FFF7CFFD0546564B5B6F13F0020F26
:100CC80033D1FFF7C7FD401B0228F5D9032033E1D4
:100CD800504A136823F0F803216943EAC1031360FB
:100CE800DEE74D4B00221A60FFF7B4FD0546494B7D
:100CF8001B6813F0020FD3D0FFF7ACFD401B02288E
:100D0800F5D9032018E1454B00221A60FFF7A2FD30
:100D18000546404B5B6F13F0020F06D0FFF79AFDB4
:100D2800401B0228F5D9032006E1236813F0040FBD
:100D380079D0384B1B6C13F0805F33D100230193BB
:100D4800344B1A6C42F080521A641B6C03F08053C7
:100D58000193019B0125324B1B6813F4807F23D03C
:100D6800A368012B34D0052B38D02A4B1A6F22F0F8
:100D780001021A671A6F22F004021A67A368002B8F
:100D880036D0FFF767FD0646224B1B6F13F0020FA4
:100D980048D1FFF75FFD801B41F288339842F3D9B1
:100DA8000320C9E00025D6E71D4A136843F4807381
:100DB8001360FFF74FFD0646194B1B6813F4807F3D
:100DC800CED1FFF747FD801B0228F5D90320B3E0F9
:100DD800104A136F43F001031367CFE70D4B1A6FE7
:100DE80042F004021A671A6F42F001021A67C5E757
:100DF800FFF730FD0646074B1B6F13F0020F11D0AB
:100E0800FFF728FD801B41F288339842F3D903206D
:100E180092E000BF0038024000004742800E47427F
:100E280000700040EDB9A369002B00F08480454AAA
:100E3800926802F00C02082A51D0022B17D0424BBC
:100E480000221A60FFF706FD04463E4B1B6813F0AC
:100E5800007F42D0FFF7FEFC001B0228F5D90320D3
:100E68006AE0384A136C23F080531364DBE7364B8F
:100E780000221A60FFF7EEFC0546324B1B6813F0A0
:100E8800007F06D0FFF7E6FC401B0228F5D90320B7
:100E980052E0E369226A1343626A43EA8213A26A50
:100EA8005208013A43EA0243E26A43EA0263254AE6
:100EB8005360254B01221A60FFF7CCFC0446214BF6
:100EC8001B6813F0007F06D1FFF7C4FC001B022843
:100ED800F5D9032030E000202EE000202CE0012B83
:100EE8002CD0184B5B6803F48001E269914201D071
:100EF800012021E003F03F02216A8A4201D001204B
:100F08001AE0616A47F6C0721A408A4201D001208D
:100F180012E003F44032A16A8A4201D001200BE0BA
:100F280003F07063E26A93420AD0012004E00120D2
:100F38007047012000E0002002B070BD0120FBE7EF
:100F48000020F9E70038024060004742324B9B68B6
:100F580003F00C03042B5CD0082B01D02F487047FA
:100F68002DE9F04B2C4B5A6802F03F025B6813F4F2
:100F7800800F2BD0284B5B68C3F388131E460027CD
:100F88005C010025E41A65EB0705A90141EA9461B3
:100F9800A001001B61EB0501CB0043EA5073C400BC
:100FA800A01943EB07014B0243EAD0534402204601
:100FB80019460023FFF704F9174B5B68C3F3014395
:100FC80001335B00B0FBF3F0BDE8F08B124B5B68BC
:100FD800C3F388131E4600275C010025E41A65EB5D
:100FE8000705A90141EA9461A001001B61EB050115
:100FF800CB0043EA5073C400A01943EB07018B02EE
:1010080043EA90538402204619460023FFF7D8F894
:10101800D2E70348704700BF003802400024F400BC
:1010280000127A00002800F09E8070B50446504BEC
:101038001B6803F00F038B4209D2CBB24C4A1370E2
:10104800136803F00F038B4201D0012070BD2368A1
:1010580013F0020F17D013F0040F04D0454A936819
:1010680043F4E0539360236813F0080F04D0414A17
:10107800936843F4604393603E4A936823F0F00317
:10108800A068034393600D46236813F0010F32D024
:101098006368012B21D09A1E012A25D9354A126886
:1010A80012F0020F61D033498A6822F00302134319
:1010B8008B60FFF7CFFB06462E4B9B6803F00C03B3
:1010C8006268B3EB820F16D0FFF7C4FB801B41F2B6
:1010D80088339842F0D90320B8E7264A126812F4F8
:1010E800003FE0D10120B1E7224A126812F0007FE8
:1010F800D9D10120AAE71E4B1B6803F00F03AB42AE
:1011080009D9EAB21A4B1A701B6803F00F03AB42F5
:1011180001D001209AE7236813F0040F06D0154A7E
:10112800936823F4E053E1680B439360236813F05A
:10113800080F07D00F4A936823F46043216943EAF4
:10114800C1039360FFF702FF0A4B9B68C3F30313C5
:10115800094AD35CD840094B1860094B1868FFF757
:101168002FFB002072E70120704701206EE700BFC7
:10117800003C024000380240741B000804000020B4
:101188000C000020014B1868704700BF04000020C5
:1011980008B5FFF7F7FF044B9B68C3F38223034AA4
:1011A800D35CD84008BD00BF00380240841B00084B
:1011B80008B5FFF7E7FF044B9B68C3F34233034AC4
:1011C800D35CD84008BD00BF00380240841B00082B
:1011D8000268D36843F00103D3600268936803F0A0
:1011E8000703062B03D0136843F0010313600020A4
:1011F8007047704770477047704710B504460368DA
:101208001A6912F0020F11D0DA6812F0020F0DD02D
:101218006FF002021A610123037703689B6913F0D8
:10122800030F70D0FFF7E6FF0023237723681A69BE
:1012380012F0040F12D0DA6812F0040F0ED06FF01B
:1012480004021A610223237723689B6913F4407F01
:101258005FD02046FFF7CEFF0023237723681A6963
:1012680012F0080F12D0DA6812F0080F0ED06FF0E3
:1012780008021A61042323772368DB6913F0030F3C
:101288004ED02046FFF7B6FF0023237723681A695C
:1012980012F0100F12D0DA6812F0100F0ED06FF0A3
:1012A80010021A61082323772368DB6913F4407F4F
:1012B8003DD02046FFF79EFF0023237723681A6955
:1012C80012F0010F03D0DA6812F0010F36D123684B
:1012D8001A6912F0800F03D0DA6812F0800F34D147
:1012E80023681A6912F0400F03D0DA6812F0400F31
:1012F80032D123681A6912F0200F03D0DA6812F08D
:10130800200F30D110BDFFF774FF2046FFF773FFA1
:101318008AE72046FFF76DFF2046FFF76CFF9BE743
:101328002046FFF766FF2046FFF765FFACE720463B
:10133800FFF75FFF2046FFF75EFFBDE76FF0010292
:101348001A612046FFF7DAF8C1E76FF080021A61E8
:10135800204600F08DF8C3E76FF040021A6120467E
:10136800FFF74AFFC5E76FF020021A61204600F038
:101378007EF8C7E70368304A904212D0B0F1804F38
:101388000FD0A2F57C4290420BD002F580629042C9
:1013980007D002F58062904203D002F5784290426D
:1013A80003D123F070034A681343234A90422AD09A
:1013B800B0F1804F27D0A2F57C42904223D002F5AD
:1013C800806290421FD002F5806290421BD002F5E5
:1013D8007842904217D002F57052904213D002F52D
:1013E800806290420FD002F5806290420BD0A2F545
:1013F8009832904207D002F58062904203D002F5FD
:101408008062904203D123F44073CA68134323F0E7
:1014180080034A69134303608B68C3620B68836265
:10142800054B984203D003F58063984201D10B69BC
:10143800036301234361704700000140A8B110B560
:10144800044690F83D305BB1022384F83D30211DFD
:101458002068FFF78FFF012384F83D30002010BD7E
:1014680080F83C30FFF784F9EEE7012070477047B9
:1014780070470268D36823F49073D3600268536995
:1014880023F001035361202380F83A30704790F825
:101498003930DBB2212B2AD18368B3F5805F16D0AF
:1014A800036A5A1C02621A7803685A60C38C013BAB
:1014B8009BB2C384EBB90268D36823F08003D3607E
:1014C8000268D36843F04003D36000207047036A82
:1014D8001B880268C3F30803536003691BB9036AD6
:1014E80002330362E2E7036A01330362DEE70220A4
:1014F80070470020704700002DE9F04B0446026851
:10150800136923F44053C1680B431361836802696C
:10151800134342691343C2691A430168CB6823F431
:10152800164323F00C031343CB600268536923F47A
:10153800407381690B435361C369B3F5004F3BD0D6
:101548000368714A934200F0AB8002F580629342CF
:1015580000F0A680FFF71CFE4FF00009061849EBC3
:10156800090716EB000B47EB090C4FEACC0343EADB
:101578005B734FEACB0293469C4663689A009B0FC5
:1015880010EB0B0049EB0C01FEF71AFE5F4DA5FBB3
:1015980000325109642202FB110213013233A5FB08
:1015A80003235B0903F0F00202EB011203F00F03BF
:1015B800216813448B60A4E00368534A934239D0EE
:1015C80002F58062934235D0FFF7E2FD83464FF083
:1015D800000C06184CEB0C0716EB000847EB0C093F
:1015E8004FEAC90343EA58734FEAC802904699463E
:1015F80062680021921841EB01031BEB08004CEBD9
:101608000901FEF7DDFD414DA5FB003251096422B9
:1016180002FB1102D3003233A5FB03235B095A00F6
:1016280002F4F87202EB011203F007032168134475
:101638008B6066E0FFF7BCFD80464FF00009061896
:1016480049EB090716EB000B47EB090C4FEACC03F3
:1016580043EA5B734FEACB0293469C4662680021DB
:10166800921841EB010318EB0B0049EB0C01FEF754
:10167800A7FD264DA5FB00325109642202FB110289
:10168800D3003233A5FB03235B095A0002F4F87236
:1016980002EB011203F00703216813448B6030E06A
:1016A800FFF786FD4FF00009061849EB090716EB0E
:1016B800000B47EB090C4FEACC0343EA5B734FEA94
:1016C800CB0293469C4663689A009B0F10EB0B0075
:1016D80049EB0C01FEF774FD0C4DA5FB00325109D6
:1016E800642202FB110213013233A5FB03235B09B9
:1016F80003F0F00202EB011203F00F032168134418
:101708008B60BDE8F08B00BF001001401F85EB51D6
:101718002DE9F04105460F4616469846069C2B686B
:101728001B6837EA03030CBF01230023B3421DD112
:10173800B4F1FF3FF3D02CB1FFF78CF8A0EB080011
:10174800A042ECD92A68D36823F4D073D3602A68FE
:10175800536923F001035361202385F8393085F854
:101768003A30002385F83830032000E00020BDE837
:10177800F08158B310B5044690F839300BB32423E0
:1017880084F839302268D36823F40053D3602046A4
:10179800FFF7B2FE2268136923F4904313612268AD
:1017A800536923F02A0353612268D36843F4005332
:1017B800D3600020E063202384F8393084F83A307D
:1017C80010BD80F83830FEF78FFFD8E7012070474A
:1017D8002DE9F04383B01E4690F83930DBB2202B58
:1017E80056D104460D469046002956D0002A56D0B8
:1017F80090F83830012B54D0012380F838304FF05E
:101808000009C0F83C90212380F83930FFF722F80E
:101818000746A4F82480A4F8268084F8389010E0BD
:1018280000963B46002280212046FFF771FF0028E2
:1018380039D12B882268C3F3080353602369C3B9DD
:101848000235E38C9BB2B3B1E38C013B9BB2E384DA
:10185800A368B3F5805FE3D000963B460022802161
:101868002046FFF755FF00BB2A7823685A600135E8
:10187800E7E70135E5E700963B4600224021204690
:10188800FFF746FF034690B9202284F8392000E08C
:101898000223184603B0BDE8F0830123F9E70123CA
:1018A800F7E70223F5E70323F3E70323F1E703232D
:1018B800EFE7704708B50168CB6823F04003CB60B9
:1018C800202380F83930FFF7F4FF002008BD704767
:1018D80008B590F83A30DBB2222B45D18368B3F5CE
:1018E800805F0ED0036903BB03685A68836A591C7A
:1018F80081621A70C38D013B9BB2C385F3B100208E
:1019080033E0826A036943B903685B68C3F3080379
:101918001380836A02338362ECE703685B68DBB297
:101928001380836A01338362E4E703685B68826A31
:10193800511C816203F07F031370DBE70268D368F0
:1019480023F02003D3600268D36823F48073D36044
:101958000268536923F001035361202380F83A3069
:10196800FFF7B5FF002000E0022008BD7047000027
:1019780010B5044602681368D168526913F00F0065
:1019880005D113F0200F02D011F0200F56D10028F6
:101998006AD012F0010202D111F4907F64D013F0E2
:1019A800010F06D011F4807F03D0E06B40F00100F6
:1019B800E06313F0040F04D01AB1E06B40F00200AA
:1019C800E06313F0020F04D01AB1E06B40F004009A
:1019D800E06313F0080F07D011F0200F00D11AB1FF
:1019E800E26B42F00802E263E26B002A48D013F08F
:1019F800200F02D011F0200F24D123685B6903F077
:101A08004003E26B12F0080F00D13BB32046FFF70A
:101A180030FD23685A6912F0400F1BD05A6922F032
:101A280040025A61636B8BB11A4A1A65606BFEF704
:101A380096FF28B3606B036D984721E02046FFF7B7
:101A480047FF1DE02046FFF743FFD6E72046FFF794
:101A58008DFF15E02046FFF789FF11E02046FFF7CC
:101A680085FF0023E3630BE013F0800F02D011F031
:101A7800800F06D113F0400F02D011F0400F04D1AF
:101A880010BD2046FFF703FDFAE72046FFF712FFD7
:101A9800F6E700BFA11A000808B5806B0023C385CC
:101AA800C384FFF763FF08BDDFF834D0002103E0EB
:101AB8000C4B5B58435004310B480C4B42189A426C
:101AC800F6D30B4A02E0002342F8043B094B9A4242
:101AD800F9D3FEF767FE00F011F8FEF7BFFD704777
:101AE80000000220B41B00080000002010000020A5
:101AF800100000202C010020FEE7000070B50D4EFC
:101B08000D4CA41BA4100025A54209D10B4E0C4C6A
:101B180000F020F8A41BA4100025A54205D170BD33
:101B280056F8253098470135EEE756F8253098479E
:101B38000135F2E7AC1B0008AC1B0008AC1B000821
:101B4800B01B000802440346934200D1704703F8D3
:101B5800011BF9E7F8B500BFF8BC08BC9E46704702
:0C1B6800F8B500BFF8BC08BC9E467047F2
:101B74000000000000000000010203040607080939
:101B84000000000001020304546865207573657247
:101B940020646174613A2074696D65720D0A0000F5
:081BA40054E6FF7F0100000080
:041BAC00AD0100087F
:041BB000890100089F
:101BB4008C1B00080024F400010000001000000049
:0400000508001AB124
:00000001FF
